{
  "contractName": "dMatch",
  "abi": [
    {
      "constant": true,
      "inputs": [],
      "name": "bet",
      "outputs": [
        {
          "name": "",
          "type": "uint256"
        }
      ],
      "payable": false,
      "stateMutability": "view",
      "type": "function"
    },
    {
      "constant": true,
      "inputs": [],
      "name": "player2",
      "outputs": [
        {
          "name": "",
          "type": "address"
        }
      ],
      "payable": false,
      "stateMutability": "view",
      "type": "function"
    },
    {
      "constant": true,
      "inputs": [],
      "name": "parent",
      "outputs": [
        {
          "name": "",
          "type": "address"
        }
      ],
      "payable": false,
      "stateMutability": "view",
      "type": "function"
    },
    {
      "constant": true,
      "inputs": [],
      "name": "stage",
      "outputs": [
        {
          "name": "",
          "type": "address"
        }
      ],
      "payable": false,
      "stateMutability": "view",
      "type": "function"
    },
    {
      "constant": true,
      "inputs": [],
      "name": "state",
      "outputs": [
        {
          "name": "",
          "type": "uint8"
        }
      ],
      "payable": false,
      "stateMutability": "view",
      "type": "function"
    },
    {
      "constant": true,
      "inputs": [],
      "name": "player1",
      "outputs": [
        {
          "name": "",
          "type": "address"
        }
      ],
      "payable": false,
      "stateMutability": "view",
      "type": "function"
    },
    {
      "constant": true,
      "inputs": [],
      "name": "winner",
      "outputs": [
        {
          "name": "",
          "type": "address"
        }
      ],
      "payable": false,
      "stateMutability": "view",
      "type": "function"
    },
    {
      "constant": true,
      "inputs": [
        {
          "name": "",
          "type": "address"
        }
      ],
      "name": "players",
      "outputs": [
        {
          "name": "warrior",
          "type": "address"
        },
        {
          "name": "damage",
          "type": "uint256"
        },
        {
          "name": "points",
          "type": "uint256"
        }
      ],
      "payable": false,
      "stateMutability": "view",
      "type": "function"
    },
    {
      "constant": true,
      "inputs": [],
      "name": "loser",
      "outputs": [
        {
          "name": "",
          "type": "address"
        }
      ],
      "payable": false,
      "stateMutability": "view",
      "type": "function"
    },
    {
      "constant": true,
      "inputs": [],
      "name": "token",
      "outputs": [
        {
          "name": "",
          "type": "address"
        }
      ],
      "payable": false,
      "stateMutability": "view",
      "type": "function"
    },
    {
      "inputs": [
        {
          "name": "_parent",
          "type": "address"
        },
        {
          "name": "_token",
          "type": "address"
        },
        {
          "name": "_warrior",
          "type": "address"
        },
        {
          "name": "_stage",
          "type": "address"
        },
        {
          "name": "_bet",
          "type": "uint256"
        }
      ],
      "payable": false,
      "stateMutability": "nonpayable",
      "type": "constructor"
    },
    {
      "payable": false,
      "stateMutability": "nonpayable",
      "type": "fallback"
    },
    {
      "constant": false,
      "inputs": [
        {
          "name": "_warrior",
          "type": "address"
        }
      ],
      "name": "initPlayer2",
      "outputs": [],
      "payable": false,
      "stateMutability": "nonpayable",
      "type": "function"
    },
    {
      "constant": false,
      "inputs": [
        {
          "name": "_winner",
          "type": "address"
        },
        {
          "name": "_loser",
          "type": "address"
        }
      ],
      "name": "setResult",
      "outputs": [],
      "payable": false,
      "stateMutability": "nonpayable",
      "type": "function"
    },
    {
      "constant": false,
      "inputs": [],
      "name": "withdraw",
      "outputs": [],
      "payable": false,
      "stateMutability": "nonpayable",
      "type": "function"
    }
  ],
  "bytecode": "0x608060405260006008553480156200001657600080fd5b5060405160a080620019bc8339810180604052810190808051906020019092919080519060200190929190805190602001909291908051906020019092919080519060200190929190505050846000806101000a81548173ffffffffffffffffffffffffffffffffffffffff021916908373ffffffffffffffffffffffffffffffffffffffff16021790555083600160006101000a81548173ffffffffffffffffffffffffffffffffffffffff021916908373ffffffffffffffffffffffffffffffffffffffff16021790555081600660006101000a81548173ffffffffffffffffffffffffffffffffffffffff021916908373ffffffffffffffffffffffffffffffffffffffff1602179055506000600660146101000a81548160ff021916908360038111156200014457fe5b0217905550806008819055506200016a8362000175640100000000026401000000009004565b5050505050620004ed565b600060038111156200018357fe5b600660149054906101000a900460ff1660038111156200019f57fe5b141515620001ac57600080fd5b3373ffffffffffffffffffffffffffffffffffffffff16600260009054906101000a900473ffffffffffffffffffffffffffffffffffffffff1673ffffffffffffffffffffffffffffffffffffffff16141515156200020a57600080fd5b33600260006101000a81548173ffffffffffffffffffffffffffffffffffffffff021916908373ffffffffffffffffffffffffffffffffffffffff160217905550600160009054906101000a900473ffffffffffffffffffffffffffffffffffffffff1673ffffffffffffffffffffffffffffffffffffffff166323b872dd33306008546040518463ffffffff167c0100000000000000000000000000000000000000000000000000000000028152600401808473ffffffffffffffffffffffffffffffffffffffff1673ffffffffffffffffffffffffffffffffffffffff1681526020018373ffffffffffffffffffffffffffffffffffffffff1673ffffffffffffffffffffffffffffffffffffffff1681526020018281526020019350505050602060405180830381600087803b1580156200034757600080fd5b505af11580156200035c573d6000803e3d6000fd5b505050506040513d60208110156200037357600080fd5b8101908080519060200190929190505050506200039f81620003a2640100000000026401000000009004565b50565b60006003811115620003b057fe5b600660149054906101000a900460ff166003811115620003cc57fe5b141515620003d957600080fd5b80600760003373ffffffffffffffffffffffffffffffffffffffff1673ffffffffffffffffffffffffffffffffffffffff16815260200190815260200160002060000160006101000a81548173ffffffffffffffffffffffffffffffffffffffff021916908373ffffffffffffffffffffffffffffffffffffffff1602179055506000600760003373ffffffffffffffffffffffffffffffffffffffff1673ffffffffffffffffffffffffffffffffffffffff168152602001908152602001600020600101819055506000600760003373ffffffffffffffffffffffffffffffffffffffff1673ffffffffffffffffffffffffffffffffffffffff1681526020019081526020016000206002018190555050565b6114bf80620004fd6000396000f3006080604052600436106100c5576000357c0100000000000000000000000000000000000000000000000000000000900463ffffffff16806311610c25146100d45780633ccfd60b146100ff57806359a5f12d1461011657806360f96a8f1461016d5780636ef05e19146101c45780638fe64a8914610207578063c040e6b81461026a578063c19d93fb146102c1578063d30895e4146102fa578063dfbf53ae14610351578063e2eb41ff146103a8578063e82898b314610439578063fc0c546a14610490575b3480156100d157600080fd5b50005b3480156100e057600080fd5b506100e96104e7565b6040518082815260200191505060405180910390f35b34801561010b57600080fd5b506101146104ed565b005b34801561012257600080fd5b5061012b610bd8565b604051808273ffffffffffffffffffffffffffffffffffffffff1673ffffffffffffffffffffffffffffffffffffffff16815260200191505060405180910390f35b34801561017957600080fd5b50610182610bfe565b604051808273ffffffffffffffffffffffffffffffffffffffff1673ffffffffffffffffffffffffffffffffffffffff16815260200191505060405180910390f35b3480156101d057600080fd5b50610205600480360381019080803573ffffffffffffffffffffffffffffffffffffffff169060200190929190505050610c23565b005b34801561021357600080fd5b50610268600480360381019080803573ffffffffffffffffffffffffffffffffffffffff169060200190929190803573ffffffffffffffffffffffffffffffffffffffff169060200190929190505050610f81565b005b34801561027657600080fd5b5061027f6111fe565b604051808273ffffffffffffffffffffffffffffffffffffffff1673ffffffffffffffffffffffffffffffffffffffff16815260200191505060405180910390f35b3480156102cd57600080fd5b506102d6611224565b604051808260038111156102e657fe5b60ff16815260200191505060405180910390f35b34801561030657600080fd5b5061030f611237565b604051808273ffffffffffffffffffffffffffffffffffffffff1673ffffffffffffffffffffffffffffffffffffffff16815260200191505060405180910390f35b34801561035d57600080fd5b5061036661125d565b604051808273ffffffffffffffffffffffffffffffffffffffff1673ffffffffffffffffffffffffffffffffffffffff16815260200191505060405180910390f35b3480156103b457600080fd5b506103e9600480360381019080803573ffffffffffffffffffffffffffffffffffffffff169060200190929190505050611283565b604051808473ffffffffffffffffffffffffffffffffffffffff1673ffffffffffffffffffffffffffffffffffffffff168152602001838152602001828152602001935050505060405180910390f35b34801561044557600080fd5b5061044e6112cd565b604051808273ffffffffffffffffffffffffffffffffffffffff1673ffffffffffffffffffffffffffffffffffffffff16815260200191505060405180910390f35b34801561049c57600080fd5b506104a56112f3565b604051808273ffffffffffffffffffffffffffffffffffffffff1673ffffffffffffffffffffffffffffffffffffffff16815260200191505060405180910390f35b60085481565b600060038111156104fa57fe5b600660149054906101000a900460ff16600381111561051557fe5b148061054657506002600381111561052957fe5b600660149054906101000a900460ff16600381111561054457fe5b145b80610575575060038081111561055857fe5b600660149054906101000a900460ff16600381111561057357fe5b145b151561058057600080fd5b600260009054906101000a900473ffffffffffffffffffffffffffffffffffffffff1673ffffffffffffffffffffffffffffffffffffffff163373ffffffffffffffffffffffffffffffffffffffff1614806106295750600360009054906101000a900473ffffffffffffffffffffffffffffffffffffffff1673ffffffffffffffffffffffffffffffffffffffff163373ffffffffffffffffffffffffffffffffffffffff16145b151561063457600080fd5b6000600381111561064157fe5b600660149054906101000a900460ff16600381111561065c57fe5b14156107e457600260009054906101000a900473ffffffffffffffffffffffffffffffffffffffff1673ffffffffffffffffffffffffffffffffffffffff163373ffffffffffffffffffffffffffffffffffffffff161415156106be57600080fd5b600160009054906101000a900473ffffffffffffffffffffffffffffffffffffffff1673ffffffffffffffffffffffffffffffffffffffff1663a9059cbb600260009054906101000a900473ffffffffffffffffffffffffffffffffffffffff166008546040518363ffffffff167c0100000000000000000000000000000000000000000000000000000000028152600401808373ffffffffffffffffffffffffffffffffffffffff1673ffffffffffffffffffffffffffffffffffffffff16815260200182815260200192505050602060405180830381600087803b1580156107a757600080fd5b505af11580156107bb573d6000803e3d6000fd5b505050506040513d60208110156107d157600080fd5b8101908080519060200190929190505050505b600260038111156107f157fe5b600660149054906101000a900460ff16600381111561080c57fe5b141561093857600160009054906101000a900473ffffffffffffffffffffffffffffffffffffffff1673ffffffffffffffffffffffffffffffffffffffff1663a9059cbb600460009054906101000a900473ffffffffffffffffffffffffffffffffffffffff166008546040518363ffffffff167c0100000000000000000000000000000000000000000000000000000000028152600401808373ffffffffffffffffffffffffffffffffffffffff1673ffffffffffffffffffffffffffffffffffffffff16815260200182815260200192505050602060405180830381600087803b1580156108fb57600080fd5b505af115801561090f573d6000803e3d6000fd5b505050506040513d602081101561092557600080fd5b8101908080519060200190929190505050505b60038081111561094457fe5b600660149054906101000a900460ff16600381111561095f57fe5b1415610bd657600160009054906101000a900473ffffffffffffffffffffffffffffffffffffffff1673ffffffffffffffffffffffffffffffffffffffff1663a9059cbb600260009054906101000a900473ffffffffffffffffffffffffffffffffffffffff166109dc600260085461131990919063ffffffff16565b6040518363ffffffff167c0100000000000000000000000000000000000000000000000000000000028152600401808373ffffffffffffffffffffffffffffffffffffffff1673ffffffffffffffffffffffffffffffffffffffff16815260200182815260200192505050602060405180830381600087803b158015610a6157600080fd5b505af1158015610a75573d6000803e3d6000fd5b505050506040513d6020811015610a8b57600080fd5b810190808051906020019092919050505050600160009054906101000a900473ffffffffffffffffffffffffffffffffffffffff1673ffffffffffffffffffffffffffffffffffffffff1663a9059cbb600360009054906101000a900473ffffffffffffffffffffffffffffffffffffffff16610b14600260085461131990919063ffffffff16565b6040518363ffffffff167c0100000000000000000000000000000000000000000000000000000000028152600401808373ffffffffffffffffffffffffffffffffffffffff1673ffffffffffffffffffffffffffffffffffffffff16815260200182815260200192505050602060405180830381600087803b158015610b9957600080fd5b505af1158015610bad573d6000803e3d6000fd5b505050506040513d6020811015610bc357600080fd5b8101908080519060200190929190505050505b565b600360009054906101000a900473ffffffffffffffffffffffffffffffffffffffff1681565b6000809054906101000a900473ffffffffffffffffffffffffffffffffffffffff1681565b60006003811115610c3057fe5b600660149054906101000a900460ff166003811115610c4b57fe5b141515610c5757600080fd5b600073ffffffffffffffffffffffffffffffffffffffff16600360009054906101000a900473ffffffffffffffffffffffffffffffffffffffff1673ffffffffffffffffffffffffffffffffffffffff16141515610cb457600080fd5b600854600160009054906101000a900473ffffffffffffffffffffffffffffffffffffffff1673ffffffffffffffffffffffffffffffffffffffff166370a08231336040518263ffffffff167c0100000000000000000000000000000000000000000000000000000000028152600401808273ffffffffffffffffffffffffffffffffffffffff1673ffffffffffffffffffffffffffffffffffffffff168152602001915050602060405180830381600087803b158015610d7457600080fd5b505af1158015610d88573d6000803e3d6000fd5b505050506040513d6020811015610d9e57600080fd5b810190808051906020019092919050505010151515610dbc57600080fd5b33600360006101000a81548173ffffffffffffffffffffffffffffffffffffffff021916908373ffffffffffffffffffffffffffffffffffffffff160217905550610e1460085460085461132f90919063ffffffff16565b600881905550600160009054906101000a900473ffffffffffffffffffffffffffffffffffffffff1673ffffffffffffffffffffffffffffffffffffffff166323b872dd33306008546040518463ffffffff167c0100000000000000000000000000000000000000000000000000000000028152600401808473ffffffffffffffffffffffffffffffffffffffff1673ffffffffffffffffffffffffffffffffffffffff1681526020018373ffffffffffffffffffffffffffffffffffffffff1673ffffffffffffffffffffffffffffffffffffffff1681526020018281526020019350505050602060405180830381600087803b158015610f1557600080fd5b505af1158015610f29573d6000803e3d6000fd5b505050506040513d6020811015610f3f57600080fd5b810190808051906020019092919050505050610f5a8161134b565b6001600660146101000a81548160ff02191690836003811115610f7957fe5b021790555050565b6000809054906101000a900473ffffffffffffffffffffffffffffffffffffffff1673ffffffffffffffffffffffffffffffffffffffff163373ffffffffffffffffffffffffffffffffffffffff16141515610fdc57600080fd5b60016003811115610fe957fe5b600660149054906101000a900460ff16600381111561100457fe5b14151561101057600080fd5b600260009054906101000a900473ffffffffffffffffffffffffffffffffffffffff1673ffffffffffffffffffffffffffffffffffffffff168273ffffffffffffffffffffffffffffffffffffffff1614806110b95750600260009054906101000a900473ffffffffffffffffffffffffffffffffffffffff1673ffffffffffffffffffffffffffffffffffffffff168173ffffffffffffffffffffffffffffffffffffffff16145b15156110c457600080fd5b600360009054906101000a900473ffffffffffffffffffffffffffffffffffffffff1673ffffffffffffffffffffffffffffffffffffffff168273ffffffffffffffffffffffffffffffffffffffff16148061116d5750600360009054906101000a900473ffffffffffffffffffffffffffffffffffffffff1673ffffffffffffffffffffffffffffffffffffffff168173ffffffffffffffffffffffffffffffffffffffff16145b151561117857600080fd5b81600460006101000a81548173ffffffffffffffffffffffffffffffffffffffff021916908373ffffffffffffffffffffffffffffffffffffffff16021790555080600560006101000a81548173ffffffffffffffffffffffffffffffffffffffff021916908373ffffffffffffffffffffffffffffffffffffffff1602179055505050565b600660009054906101000a900473ffffffffffffffffffffffffffffffffffffffff1681565b600660149054906101000a900460ff1681565b600260009054906101000a900473ffffffffffffffffffffffffffffffffffffffff1681565b600460009054906101000a900473ffffffffffffffffffffffffffffffffffffffff1681565b60076020528060005260406000206000915090508060000160009054906101000a900473ffffffffffffffffffffffffffffffffffffffff16908060010154908060020154905083565b600560009054906101000a900473ffffffffffffffffffffffffffffffffffffffff1681565b600160009054906101000a900473ffffffffffffffffffffffffffffffffffffffff1681565b6000818381151561132657fe5b04905092915050565b6000818301905082811015151561134257fe5b80905092915050565b6000600381111561135857fe5b600660149054906101000a900460ff16600381111561137357fe5b14151561137f57600080fd5b80600760003373ffffffffffffffffffffffffffffffffffffffff1673ffffffffffffffffffffffffffffffffffffffff16815260200190815260200160002060000160006101000a81548173ffffffffffffffffffffffffffffffffffffffff021916908373ffffffffffffffffffffffffffffffffffffffff1602179055506000600760003373ffffffffffffffffffffffffffffffffffffffff1673ffffffffffffffffffffffffffffffffffffffff168152602001908152602001600020600101819055506000600760003373ffffffffffffffffffffffffffffffffffffffff1673ffffffffffffffffffffffffffffffffffffffff16815260200190815260200160002060020181905550505600a165627a7a7230582077d1dc8719fc73af3e82d0b8207436d22c34fa9dd5f08bf1dc21eed29c1507450029",
  "source": "pragma solidity ^0.4.24;\n\nimport '../node_modules/openzeppelin-solidity/contracts/math/SafeMath.sol';\nimport './dWart.sol';\n\n/*\n* @dev Legends of dWaria contract\n* Stores the players, dMatches, dWarriors and dStages\n*/\ncontract dWaria {\n\n    address public dBoss;\n\n    dWart public token;\n\n    address[] public $warriors;\n    address[] public $players;\n    address[] public $stages;\n    address[] public $matches;\n\n    mapping(address => Player) public players;\n    mapping(address => Warrior) public warriors;\n    mapping(address => Stage) public stages;\n    mapping(address => Match) public matches;\n\n    uint256 public price = 1;\n\n    struct Player {\n        address id;\n        uint256 wins;\n        uint256 losses;\n        uint256 amountRaised;\n        uint256 amountLost;\n        address[] oponents;\n        address[] matches;\n    }\n\n    struct Warrior {\n        address id;\n    }\n    \n    struct Stage {\n        address id;\n    }\n    \n    struct Match {\n        address id;\n    }\n\n    constructor(dWart _token) public {\n        token = _token;\n        dBoss = msg.sender;\n    }\n\n    function() external {}\n\n    function registerPlayer() public {\n        require(players[msg.sender].id == address(0));\n        require(token.balanceOf(msg.sender) >= price);\n        \n        token.transferFrom(msg.sender, dBoss, price);\n\n        players[msg.sender].id = msg.sender;\n        players[msg.sender].wins = 0;\n        players[msg.sender].losses = 0;\n        players[msg.sender].amountRaised = 0; \n        players[msg.sender].amountLost = 0;\n\n        $players.push(msg.sender);\n    }\n\n    function registerDWarrior(dWarrior _warrior) public {\n        require(warriors[_warrior].id == address(0));\n        warriors[_warrior].id = _warrior;\n        $warriors.push(_warrior);\n    }\n\n    function registerDStage(dStage _stage) public {\n        require(stages[_stage].id == address(0));\n        stages[_stage].id = _stage;\n        $stages.push(_stage);\n    }\n\n    function registerDMatch(dMatch _match) public {\n        require(matches[_match].id == address(0));\n        require(token.balanceOf(msg.sender) >= price);\n        \n        token.transferFrom(msg.sender, dBoss, price);\n\n        matches[_match].id = _match;\n        $matches.push(_match);\n    }\n}\n\n/*\n* @dev a dWaria dMatch\n* It is a match between 2 registered players\n* Any registered player can create a match\n* a match is initialized by sending a bet in dWart tokens\n*/\ncontract dMatch {\n\n    using SafeMath for uint256;\n\n    modifier onlyDWaria() {\n        require(msg.sender == address(parent));\n        _;\n    }\n    \n    modifier pendingOponent() {\n        require(state == State.pendingOponent);\n        _;\n    }\n\n    dWaria public parent;\n    dWart public token;\n\n    address public player1;\n    address public player2;\n\n    address public winner;\n    address public loser;\n\n    dStage public stage;\n\n    struct Player {\n        address warrior;\n        uint256 damage;\n        uint256 points;\n    }\n\n    enum State {\n        pendingOponent,\n        pendingWinner,\n        won,\n        draw\n    }\n    \n    State public state;\n\n    mapping(address => Player) public players;\n\n    uint256 public bet = 0;\n\n    constructor(\n    dWaria _parent, \n    dWart _token,\n    dWarrior _warrior,\n    dStage _stage,\n    uint256 _bet) public {\n        parent = _parent;\n        token = _token;\n        stage = _stage;\n        state = State.pendingOponent;\n        bet = _bet;\n        _initPlayer1(_warrior);\n    }\n\n    function() external {}\n\n    function _initPlayer(dWarrior _warrior) pendingOponent internal {\n        players[msg.sender].warrior = _warrior;\n        players[msg.sender].damage = 0;\n        players[msg.sender].points = 0;\n    }\n\n    function _initPlayer1(dWarrior _warrior) pendingOponent internal {\n        require(player1 != msg.sender);\n        player1 = msg.sender;\n        token.transferFrom(msg.sender, address(this), bet);\n        _initPlayer(_warrior);\n    }\n    \n    function initPlayer2(dWarrior _warrior) pendingOponent public {\n        require(player2 == address(0));\n        require(token.balanceOf(msg.sender) >= bet);\n        player2 = msg.sender;\n        bet = bet.add(bet);\n        token.transferFrom(msg.sender, address(this), bet);\n        _initPlayer(_warrior);\n        state = State.pendingWinner;\n    }\n\n    /*\n    * @dev Starts the fight\n    * This method must be called only by the official dWaria contract reference\n    */\n    // function fight() onlyDWaria public {\n    //     require(state == State.pendingWinner);\n    // }\n\n    function setResult(address _winner, address _loser) onlyDWaria public {\n        require(state == State.pendingWinner);\n        require(_winner == player1 || _loser == player1);\n        require(_winner == player2 || _loser == player2);\n\n        winner = _winner;\n        loser = _loser;\n\n        // state = State.\n    }\n\n    /*\n    * @dev The winner may call this method to retrieve the bet funds\n    * If a dMatch is marked as \"draw\", then the bet is sent back equally\n    */\n    function withdraw() public {\n        require(state == State.pendingOponent || state == State.won || state == State.draw);\n        require(msg.sender == player1 || msg.sender == player2);\n\n        if (state == State.pendingOponent) {\n            require(msg.sender == player1);\n            token.transfer(player1, bet);\n        }\n\n        if (state == State.won) {\n            token.transfer(winner, bet);\n        }\n        \n        if (state == State.draw) {\n            token.transfer(player1, bet.div(2));\n            token.transfer(player2, bet.div(2));\n        }\n    }\n}\n\ncontract dWarriorInterface {\n    \n    /*\n    * @dev Causes the actual damage to the oponent\n    */\n    function hit(uint256 _damage) internal;\n\n    /*\n    * @dev the dWarrior just stands there\n    */\n    function wait() public;\n    \n    /*\n    * @dev the dWarrior distinctive salute\n    */\n    function salute() public;\n\n    /*\n    * @dev These methods in combination with directional actions cause damage to the oponent\n    * ONLY if the oponent is hit\n    */\n    function kick() public;\n    function lowerKick() public;\n    function upperKick() public; \n    function punch() public;\n    function lowerPunch() public;\n    function upperPunch() public;\n\n    /*\n    * @dev combos and powers\n    */\n    function punchCombo() public;\n    function kickCombo() public;\n    \n    /*\n    * @dev a power combo happens on a tripple jump grab with kick and punch\n    */\n    function powerCombo() public;\n\n    /*\n    * @dev a distance power happens on walk backwards + kick + punch\n    */\n    function distancePower() public;\n\n    /*\n    * @dev shields\n    * Ways that the dWarrior can protect from the oponent attack\n    * Being hit by the oponent while shielding causes half the damage\n    */\n    function shield() public;\n    function lowerShield() public;\n    function upperShield() public;\n    \n    /*\n    * @dev directional actions cause no damage because they don't \"hit()\"\n    */\n    function grab() public;\n    function grabFromBack() public;\n    function jump() public;\n    function doubleJump() public;\n    function trippleJump() public;\n    function dock() public;\n    function walk() public;\n    function walkBackwards() public;\n    function run() public;\n    function turnLeft() public;\n    function turnRight() public;\n    \n    /*\n    * @dev dWarrior action combinations cause the sum of the base damage\n    */\n\n    // Punches\n    function grabAndPunch() public;\n    function grabFromBackAndPunch() public;\n    function dockAndPunch() public;\n    function jumpAndPunch() public;\n    function doubleJumpAndPunch() public;\n    function trippleJumpAndPunch() public;\n    function jumpAndUpperPunch() public;\n    function doubleJumpAndUpperPunch() public;\n    function trippleJumpAndUpperPunch() public;\n    function jumpAndLowerPunch() public;\n    function doubleJumpAndLowerPunch() public;\n    function trippleJumpAndLowerPunch() public;\n    function walkAndPunch() public;\n    function walkBackwardsAndPunch() public;\n    function runAndPunch() public;\n    function walkAndUpperPunch() public;\n    function walkBackwardsAndUpperPunch() public;\n    function runAndUpperPunch() public;\n    function walkAndLowerPunch() public;\n    function walkBackwardsAndLowerPunch() public;\n    function runAndLowerPunch() public;\n    function turnLeftAndPunch() public;\n    function turnRightAndPunch() public;\n\n    // Kicks\n    function grabAndKick() public;\n    function grabFromBackAndKick() public;\n    function dockAndKick() public;\n    function jumpAndKick() public;\n    function doubleJumpAndKick() public;\n    function trippleJumpAndKick() public;\n    function jumpAndUpperKick() public;\n    function doubleJumpAndUpperKick() public;\n    function trippleJumpAndUpperKick() public;\n    function jumpAndLowerKick() public;\n    function doubleJumpAndLowerKick() public;\n    function trippleJumpAndLowerKick() public;\n    function walkAndKick() public;\n    function walkBackwardsAndKick() public;\n    function runAndKick() public;\n    function walkAndUpperKick() public;\n    function walkBackwardsAndUpperKick() public;\n    function runAndUpperKick() public;\n    function walkAndLowerKick() public;\n    function walkBackwardsAndLowerKick() public;\n    function runAndLowerKick() public;\n    function turnLeftAndKick() public;\n    function turnRightAndKick() public;\n\n    function jumpGrabAndPunch() public;\n    function doubleJumpGrabAndPunch() public;\n    function trippleJumpGrabAndPunch() public;\n    function jumpGrabAndKick() public;\n    function doubleJumpGrabAndKick() public;\n    function trippleJumpGrabAndKick() public;\n\n\n    /*\n    * @dev dWarrior states\n    * These states represent the actions of the dWarrior when is hit by the oponent\n    * These methods cause the actual damage to the player after hit by the oponent\n    */\n    function onIsPunched() internal;\n    function onIsLowerPunched() internal;\n    function onIsUpperPunched() internal;\n    function onIsKicked() internal;\n    function onIsLowerKicked() internal;\n    function onIsUpperKicked() internal;\n    \n    function onIsGrabbedAndPunched() internal;\n    function onIsGrabbedAndLowerPunched() internal;\n    function onIsGrabbedAndUpperPunched() internal;\n    function onIsGrabbedAndKicked() internal;\n    function onIsGrabbedAndLowerKicked() internal;\n    function onIsGrabbedAndUpperKicked() internal;\n\n    /*\n    @dev a face smash happens when grabbed from a tripple jump\n    */\n    function onIsFaceSmashed() internal;\n}\n\n/*\n* @dev Official dWarriors have a sprite of each of the action methods\n* All dWarriors cause the same damage according to this contract\n* The dWarrior creator is free of designing the style, props and movement implementations\n*/\ncontract dWarrior is dWarriorInterface {\n\n    using SafeMath for uint256;\n\n    dWart public token;\n\n    address public creator;\n    string public name;\n    string public bio;\n\n    uint256 public amountRaised = 0;\n    uint256 public price = 1;\n    uint256 public fights = 0;\n    uint256 public fightsThreshold = 15;\n\n    /*\n    * @dev damage caused by the dWarrior\n    */\n    uint256 public kick = 1;\n    uint256 public lowerKick = 2;\n    uint256 public upperKick = 3;\n    uint256 public punch = 1;\n    uint256 public lowerPunch = 2;\n    uint256 public upperPunch = 3;\n    uint256 public grab = 1;\n    uint256 public grabFromBack = 2;\n    uint256 public jump = 1;\n    uint256 public doubleJump = 2;\n    uint256 public trippleJump = 3;\n    uint256 public walk = 1;\n    uint256 public walkBackwards = 1;\n    uint256 public run = 2;\n    uint256 public dock = 1;\n    uint256 public hit = 0;\n    uint256 public punchCombo = 3;\n    uint256 public kickCombo = 4;\n    uint256 public powerCombo = 5;\n    uint256 public distancePower = 3;\n  \n    constructor(\n    dWart _token,\n    string _name, \n    string _bio\n    ) public {\n        creator = msg.sender;\n        name = _name;\n        bio = _bio;\n        token = _token;\n    }\n\n    function() external {\n        select();\n    }\n\n    /*\n    * @dev a Player selects this dWarrior for a Match\n    */\n    function select() public {\n        require(token.balanceOf(msg.sender) >= price);\n        token.transferFrom(msg.sender, creator, price);\n        amountRaised = amountRaised.add(price);\n        fights = fights.add(1);\n        if (fights % fightsThreshold == 0) {\n            price = price.add(1);\n        }\n    }\n}\n\ncontract dStage {\n\n    using SafeMath for uint256;\n\n    dWart public token;\n\n    address public creator;\n    string public name;\n    string public shortStory;\n\n    uint256 public amountRaised = 0;\n    uint256 public price = 1;\n    uint256 public fights = 0;\n    uint256 public fightsThreshold = 15;\n\n    constructor(\n    dWart _token,\n    string _name, \n    string _shortStory\n    ) public {\n        creator = msg.sender;\n        name = _name;\n        shortStory = _shortStory;\n        token = _token;\n    }\n\n    function() external {\n        select();\n    }\n\n    /*\n    * @dev a Player selects this dWarrior for a Match\n    */\n    function select() public {\n        require(token.balanceOf(msg.sender) >= price);\n        token.transferFrom(msg.sender, creator, price);\n        amountRaised = amountRaised.add(price);\n        fights = fights.add(1);\n        if (fights % fightsThreshold == 0) {\n            price = price.add(1);\n        }\n    }\n\n    // left\n    // center\n    // right\n\n    // roof\n    // floor\n    \n    // higherground\n    // underground\n\n}",
  "sourcePath": "/Users/GustavoIbarra/Projects/Solidity/dwaria/contracts/dWarrior.sol",
  "compiler": {
    "name": "solc",
    "version": "0.4.24+commit.e67f0147.Emscripten.clang"
  },
  "schemaVersion": "2.0.1",
  "updatedAt": "2018-08-19T03:47:59.617Z"
}