{
  "contractName": "dMatch",
  "abi": [
    {
      "constant": true,
      "inputs": [],
      "name": "bet",
      "outputs": [
        {
          "name": "",
          "type": "uint256"
        }
      ],
      "payable": false,
      "stateMutability": "view",
      "type": "function"
    },
    {
      "constant": true,
      "inputs": [],
      "name": "roundCount",
      "outputs": [
        {
          "name": "",
          "type": "uint256"
        }
      ],
      "payable": false,
      "stateMutability": "view",
      "type": "function"
    },
    {
      "constant": true,
      "inputs": [],
      "name": "round",
      "outputs": [
        {
          "name": "",
          "type": "uint256"
        }
      ],
      "payable": false,
      "stateMutability": "view",
      "type": "function"
    },
    {
      "constant": true,
      "inputs": [],
      "name": "player2",
      "outputs": [
        {
          "name": "",
          "type": "address"
        }
      ],
      "payable": false,
      "stateMutability": "view",
      "type": "function"
    },
    {
      "constant": true,
      "inputs": [],
      "name": "parent",
      "outputs": [
        {
          "name": "",
          "type": "address"
        }
      ],
      "payable": false,
      "stateMutability": "view",
      "type": "function"
    },
    {
      "constant": true,
      "inputs": [
        {
          "name": "",
          "type": "uint256"
        }
      ],
      "name": "rounds",
      "outputs": [
        {
          "name": "winner",
          "type": "address"
        },
        {
          "name": "loser",
          "type": "address"
        }
      ],
      "payable": false,
      "stateMutability": "view",
      "type": "function"
    },
    {
      "constant": true,
      "inputs": [],
      "name": "stage",
      "outputs": [
        {
          "name": "",
          "type": "address"
        }
      ],
      "payable": false,
      "stateMutability": "view",
      "type": "function"
    },
    {
      "constant": true,
      "inputs": [],
      "name": "state",
      "outputs": [
        {
          "name": "",
          "type": "uint8"
        }
      ],
      "payable": false,
      "stateMutability": "view",
      "type": "function"
    },
    {
      "constant": true,
      "inputs": [],
      "name": "player1",
      "outputs": [
        {
          "name": "",
          "type": "address"
        }
      ],
      "payable": false,
      "stateMutability": "view",
      "type": "function"
    },
    {
      "constant": true,
      "inputs": [],
      "name": "winner",
      "outputs": [
        {
          "name": "",
          "type": "address"
        }
      ],
      "payable": false,
      "stateMutability": "view",
      "type": "function"
    },
    {
      "constant": true,
      "inputs": [
        {
          "name": "",
          "type": "address"
        }
      ],
      "name": "players",
      "outputs": [
        {
          "name": "warrior",
          "type": "address"
        },
        {
          "name": "damage",
          "type": "uint256"
        },
        {
          "name": "points",
          "type": "uint256"
        }
      ],
      "payable": false,
      "stateMutability": "view",
      "type": "function"
    },
    {
      "constant": true,
      "inputs": [],
      "name": "loser",
      "outputs": [
        {
          "name": "",
          "type": "address"
        }
      ],
      "payable": false,
      "stateMutability": "view",
      "type": "function"
    },
    {
      "constant": true,
      "inputs": [],
      "name": "token",
      "outputs": [
        {
          "name": "",
          "type": "address"
        }
      ],
      "payable": false,
      "stateMutability": "view",
      "type": "function"
    },
    {
      "inputs": [
        {
          "name": "_parent",
          "type": "address"
        },
        {
          "name": "_token",
          "type": "address"
        },
        {
          "name": "_warrior",
          "type": "address"
        },
        {
          "name": "_stage",
          "type": "address"
        },
        {
          "name": "_bet",
          "type": "uint256"
        }
      ],
      "payable": false,
      "stateMutability": "nonpayable",
      "type": "constructor"
    },
    {
      "payable": false,
      "stateMutability": "nonpayable",
      "type": "fallback"
    },
    {
      "constant": false,
      "inputs": [
        {
          "name": "_warrior",
          "type": "address"
        }
      ],
      "name": "enterPlayer2",
      "outputs": [],
      "payable": false,
      "stateMutability": "nonpayable",
      "type": "function"
    },
    {
      "constant": false,
      "inputs": [],
      "name": "fight",
      "outputs": [],
      "payable": false,
      "stateMutability": "nonpayable",
      "type": "function"
    },
    {
      "constant": false,
      "inputs": [
        {
          "name": "player1Damage",
          "type": "uint256"
        },
        {
          "name": "player1Points",
          "type": "uint256"
        },
        {
          "name": "player2Damage",
          "type": "uint256"
        },
        {
          "name": "player2Points",
          "type": "uint256"
        }
      ],
      "name": "endRound",
      "outputs": [],
      "payable": false,
      "stateMutability": "nonpayable",
      "type": "function"
    },
    {
      "constant": false,
      "inputs": [
        {
          "name": "_winner",
          "type": "address"
        },
        {
          "name": "_loser",
          "type": "address"
        }
      ],
      "name": "setResult",
      "outputs": [],
      "payable": false,
      "stateMutability": "nonpayable",
      "type": "function"
    },
    {
      "constant": false,
      "inputs": [],
      "name": "withdraw",
      "outputs": [],
      "payable": false,
      "stateMutability": "nonpayable",
      "type": "function"
    }
  ],
  "bytecode": "0x6080604052600260075560006008556000600c553480156200002057600080fd5b5060405160a08062001ee58339810180604052810190808051906020019092919080519060200190929190805190602001909291908051906020019092919080519060200190929190505050846000806101000a81548173ffffffffffffffffffffffffffffffffffffffff021916908373ffffffffffffffffffffffffffffffffffffffff16021790555083600160006101000a81548173ffffffffffffffffffffffffffffffffffffffff021916908373ffffffffffffffffffffffffffffffffffffffff16021790555081600660006101000a81548173ffffffffffffffffffffffffffffffffffffffff021916908373ffffffffffffffffffffffffffffffffffffffff1602179055506000600a60006101000a81548160ff021916908360038111156200014e57fe5b021790555080600c8190555062000174836200017f640100000000026401000000009004565b5050505050620004f7565b600060038111156200018d57fe5b600a60009054906101000a900460ff166003811115620001a957fe5b141515620001b657600080fd5b3373ffffffffffffffffffffffffffffffffffffffff16600260009054906101000a900473ffffffffffffffffffffffffffffffffffffffff1673ffffffffffffffffffffffffffffffffffffffff16141515156200021457600080fd5b33600260006101000a81548173ffffffffffffffffffffffffffffffffffffffff021916908373ffffffffffffffffffffffffffffffffffffffff160217905550600160009054906101000a900473ffffffffffffffffffffffffffffffffffffffff1673ffffffffffffffffffffffffffffffffffffffff166323b872dd3330600c546040518463ffffffff167c0100000000000000000000000000000000000000000000000000000000028152600401808473ffffffffffffffffffffffffffffffffffffffff1673ffffffffffffffffffffffffffffffffffffffff1681526020018373ffffffffffffffffffffffffffffffffffffffff1673ffffffffffffffffffffffffffffffffffffffff1681526020018281526020019350505050602060405180830381600087803b1580156200035157600080fd5b505af115801562000366573d6000803e3d6000fd5b505050506040513d60208110156200037d57600080fd5b810190808051906020019092919050505050620003a981620003ac640100000000026401000000009004565b50565b60006003811115620003ba57fe5b600a60009054906101000a900460ff166003811115620003d657fe5b141515620003e357600080fd5b80600b60003373ffffffffffffffffffffffffffffffffffffffff1673ffffffffffffffffffffffffffffffffffffffff16815260200190815260200160002060000160006101000a81548173ffffffffffffffffffffffffffffffffffffffff021916908373ffffffffffffffffffffffffffffffffffffffff1602179055506000600b60003373ffffffffffffffffffffffffffffffffffffffff1673ffffffffffffffffffffffffffffffffffffffff168152602001908152602001600020600101819055506000600b60003373ffffffffffffffffffffffffffffffffffffffff1673ffffffffffffffffffffffffffffffffffffffff1681526020019081526020016000206002018190555050565b6119de80620005076000396000f3006080604052600436106100fc576000357c0100000000000000000000000000000000000000000000000000000000900463ffffffff1680630ad6a1fb1461010b57806311610c2514610156578063127f0b3f14610181578063146ca531146101ac5780633ccfd60b146101d7578063457df8de146101ee57806359a5f12d146102055780635f57a90c1461025c57806360f96a8f1461029f5780638c65c81f146102f65780638fe64a8914610396578063c040e6b8146103f9578063c19d93fb14610450578063d30895e414610489578063dfbf53ae146104e0578063e2eb41ff14610537578063e82898b3146105c8578063fc0c546a1461061f575b34801561010857600080fd5b50005b34801561011757600080fd5b5061015460048036038101908080359060200190929190803590602001909291908035906020019092919080359060200190929190505050610676565b005b34801561016257600080fd5b5061016b6108e9565b6040518082815260200191505060405180910390f35b34801561018d57600080fd5b506101966108ef565b6040518082815260200191505060405180910390f35b3480156101b857600080fd5b506101c16108f5565b6040518082815260200191505060405180910390f35b3480156101e357600080fd5b506101ec6108fb565b005b3480156101fa57600080fd5b50610203610fe6565b005b34801561021157600080fd5b5061021a611093565b604051808273ffffffffffffffffffffffffffffffffffffffff1673ffffffffffffffffffffffffffffffffffffffff16815260200191505060405180910390f35b34801561026857600080fd5b5061029d600480360381019080803573ffffffffffffffffffffffffffffffffffffffff1690602001909291905050506110b9565b005b3480156102ab57600080fd5b506102b4611417565b604051808273ffffffffffffffffffffffffffffffffffffffff1673ffffffffffffffffffffffffffffffffffffffff16815260200191505060405180910390f35b34801561030257600080fd5b506103216004803603810190808035906020019092919050505061143c565b604051808373ffffffffffffffffffffffffffffffffffffffff1673ffffffffffffffffffffffffffffffffffffffff1681526020018273ffffffffffffffffffffffffffffffffffffffff1673ffffffffffffffffffffffffffffffffffffffff1681526020019250505060405180910390f35b3480156103a257600080fd5b506103f7600480360381019080803573ffffffffffffffffffffffffffffffffffffffff169060200190929190803573ffffffffffffffffffffffffffffffffffffffff1690602001909291905050506114a0565b005b34801561040557600080fd5b5061040e61171d565b604051808273ffffffffffffffffffffffffffffffffffffffff1673ffffffffffffffffffffffffffffffffffffffff16815260200191505060405180910390f35b34801561045c57600080fd5b50610465611743565b6040518082600381111561047557fe5b60ff16815260200191505060405180910390f35b34801561049557600080fd5b5061049e611756565b604051808273ffffffffffffffffffffffffffffffffffffffff1673ffffffffffffffffffffffffffffffffffffffff16815260200191505060405180910390f35b3480156104ec57600080fd5b506104f561177c565b604051808273ffffffffffffffffffffffffffffffffffffffff1673ffffffffffffffffffffffffffffffffffffffff16815260200191505060405180910390f35b34801561054357600080fd5b50610578600480360381019080803573ffffffffffffffffffffffffffffffffffffffff1690602001909291905050506117a2565b604051808473ffffffffffffffffffffffffffffffffffffffff1673ffffffffffffffffffffffffffffffffffffffff168152602001838152602001828152602001935050505060405180910390f35b3480156105d457600080fd5b506105dd6117ec565b604051808273ffffffffffffffffffffffffffffffffffffffff1673ffffffffffffffffffffffffffffffffffffffff16815260200191505060405180910390f35b34801561062b57600080fd5b50610634611812565b604051808273ffffffffffffffffffffffffffffffffffffffff1673ffffffffffffffffffffffffffffffffffffffff16815260200191505060405180910390f35b6000809054906101000a900473ffffffffffffffffffffffffffffffffffffffff1673ffffffffffffffffffffffffffffffffffffffff163373ffffffffffffffffffffffffffffffffffffffff161415156106d157600080fd5b600160038111156106de57fe5b600a60009054906101000a900460ff1660038111156106f957fe5b14151561070557600080fd5b60008410158015610717575060008310155b151561072257600080fd5b60008210158015610734575060008110155b151561073f57600080fd5b83600b6000600260009054906101000a900473ffffffffffffffffffffffffffffffffffffffff1673ffffffffffffffffffffffffffffffffffffffff1673ffffffffffffffffffffffffffffffffffffffff1681526020019081526020016000206001018190555082600b6000600260009054906101000a900473ffffffffffffffffffffffffffffffffffffffff1673ffffffffffffffffffffffffffffffffffffffff1673ffffffffffffffffffffffffffffffffffffffff1681526020019081526020016000206002018190555081600b6000600360009054906101000a900473ffffffffffffffffffffffffffffffffffffffff1673ffffffffffffffffffffffffffffffffffffffff1673ffffffffffffffffffffffffffffffffffffffff1681526020019081526020016000206001018190555080600b6000600360009054906101000a900473ffffffffffffffffffffffffffffffffffffffff1673ffffffffffffffffffffffffffffffffffffffff1673ffffffffffffffffffffffffffffffffffffffff1681526020019081526020016000206002018190555050505050565b600c5481565b60075481565b60085481565b6000600381111561090857fe5b600a60009054906101000a900460ff16600381111561092357fe5b148061095457506002600381111561093757fe5b600a60009054906101000a900460ff16600381111561095257fe5b145b80610983575060038081111561096657fe5b600a60009054906101000a900460ff16600381111561098157fe5b145b151561098e57600080fd5b600260009054906101000a900473ffffffffffffffffffffffffffffffffffffffff1673ffffffffffffffffffffffffffffffffffffffff163373ffffffffffffffffffffffffffffffffffffffff161480610a375750600360009054906101000a900473ffffffffffffffffffffffffffffffffffffffff1673ffffffffffffffffffffffffffffffffffffffff163373ffffffffffffffffffffffffffffffffffffffff16145b1515610a4257600080fd5b60006003811115610a4f57fe5b600a60009054906101000a900460ff166003811115610a6a57fe5b1415610bf257600260009054906101000a900473ffffffffffffffffffffffffffffffffffffffff1673ffffffffffffffffffffffffffffffffffffffff163373ffffffffffffffffffffffffffffffffffffffff16141515610acc57600080fd5b600160009054906101000a900473ffffffffffffffffffffffffffffffffffffffff1673ffffffffffffffffffffffffffffffffffffffff1663a9059cbb600260009054906101000a900473ffffffffffffffffffffffffffffffffffffffff16600c546040518363ffffffff167c0100000000000000000000000000000000000000000000000000000000028152600401808373ffffffffffffffffffffffffffffffffffffffff1673ffffffffffffffffffffffffffffffffffffffff16815260200182815260200192505050602060405180830381600087803b158015610bb557600080fd5b505af1158015610bc9573d6000803e3d6000fd5b505050506040513d6020811015610bdf57600080fd5b8101908080519060200190929190505050505b60026003811115610bff57fe5b600a60009054906101000a900460ff166003811115610c1a57fe5b1415610d4657600160009054906101000a900473ffffffffffffffffffffffffffffffffffffffff1673ffffffffffffffffffffffffffffffffffffffff1663a9059cbb600460009054906101000a900473ffffffffffffffffffffffffffffffffffffffff16600c546040518363ffffffff167c0100000000000000000000000000000000000000000000000000000000028152600401808373ffffffffffffffffffffffffffffffffffffffff1673ffffffffffffffffffffffffffffffffffffffff16815260200182815260200192505050602060405180830381600087803b158015610d0957600080fd5b505af1158015610d1d573d6000803e3d6000fd5b505050506040513d6020811015610d3357600080fd5b8101908080519060200190929190505050505b600380811115610d5257fe5b600a60009054906101000a900460ff166003811115610d6d57fe5b1415610fe457600160009054906101000a900473ffffffffffffffffffffffffffffffffffffffff1673ffffffffffffffffffffffffffffffffffffffff1663a9059cbb600260009054906101000a900473ffffffffffffffffffffffffffffffffffffffff16610dea6002600c5461183890919063ffffffff16565b6040518363ffffffff167c0100000000000000000000000000000000000000000000000000000000028152600401808373ffffffffffffffffffffffffffffffffffffffff1673ffffffffffffffffffffffffffffffffffffffff16815260200182815260200192505050602060405180830381600087803b158015610e6f57600080fd5b505af1158015610e83573d6000803e3d6000fd5b505050506040513d6020811015610e9957600080fd5b810190808051906020019092919050505050600160009054906101000a900473ffffffffffffffffffffffffffffffffffffffff1673ffffffffffffffffffffffffffffffffffffffff1663a9059cbb600360009054906101000a900473ffffffffffffffffffffffffffffffffffffffff16610f226002600c5461183890919063ffffffff16565b6040518363ffffffff167c0100000000000000000000000000000000000000000000000000000000028152600401808373ffffffffffffffffffffffffffffffffffffffff1673ffffffffffffffffffffffffffffffffffffffff16815260200182815260200192505050602060405180830381600087803b158015610fa757600080fd5b505af1158015610fbb573d6000803e3d6000fd5b505050506040513d6020811015610fd157600080fd5b8101908080519060200190929190505050505b565b6000809054906101000a900473ffffffffffffffffffffffffffffffffffffffff1673ffffffffffffffffffffffffffffffffffffffff163373ffffffffffffffffffffffffffffffffffffffff1614151561104157600080fd5b6001600381111561104e57fe5b600a60009054906101000a900460ff16600381111561106957fe5b14151561107557600080fd5b61108b600160085461184e90919063ffffffff16565b600881905550565b600360009054906101000a900473ffffffffffffffffffffffffffffffffffffffff1681565b600060038111156110c657fe5b600a60009054906101000a900460ff1660038111156110e157fe5b1415156110ed57600080fd5b600073ffffffffffffffffffffffffffffffffffffffff16600360009054906101000a900473ffffffffffffffffffffffffffffffffffffffff1673ffffffffffffffffffffffffffffffffffffffff1614151561114a57600080fd5b600c54600160009054906101000a900473ffffffffffffffffffffffffffffffffffffffff1673ffffffffffffffffffffffffffffffffffffffff166370a08231336040518263ffffffff167c0100000000000000000000000000000000000000000000000000000000028152600401808273ffffffffffffffffffffffffffffffffffffffff1673ffffffffffffffffffffffffffffffffffffffff168152602001915050602060405180830381600087803b15801561120a57600080fd5b505af115801561121e573d6000803e3d6000fd5b505050506040513d602081101561123457600080fd5b81019080805190602001909291905050501015151561125257600080fd5b33600360006101000a81548173ffffffffffffffffffffffffffffffffffffffff021916908373ffffffffffffffffffffffffffffffffffffffff1602179055506112aa600c54600c5461184e90919063ffffffff16565b600c81905550600160009054906101000a900473ffffffffffffffffffffffffffffffffffffffff1673ffffffffffffffffffffffffffffffffffffffff166323b872dd3330600c546040518463ffffffff167c0100000000000000000000000000000000000000000000000000000000028152600401808473ffffffffffffffffffffffffffffffffffffffff1673ffffffffffffffffffffffffffffffffffffffff1681526020018373ffffffffffffffffffffffffffffffffffffffff1673ffffffffffffffffffffffffffffffffffffffff1681526020018281526020019350505050602060405180830381600087803b1580156113ab57600080fd5b505af11580156113bf573d6000803e3d6000fd5b505050506040513d60208110156113d557600080fd5b8101908080519060200190929190505050506113f08161186a565b6001600a60006101000a81548160ff0219169083600381111561140f57fe5b021790555050565b6000809054906101000a900473ffffffffffffffffffffffffffffffffffffffff1681565b60096020528060005260406000206000915090508060000160009054906101000a900473ffffffffffffffffffffffffffffffffffffffff16908060010160009054906101000a900473ffffffffffffffffffffffffffffffffffffffff16905082565b6000809054906101000a900473ffffffffffffffffffffffffffffffffffffffff1673ffffffffffffffffffffffffffffffffffffffff163373ffffffffffffffffffffffffffffffffffffffff161415156114fb57600080fd5b6001600381111561150857fe5b600a60009054906101000a900460ff16600381111561152357fe5b14151561152f57600080fd5b600260009054906101000a900473ffffffffffffffffffffffffffffffffffffffff1673ffffffffffffffffffffffffffffffffffffffff168273ffffffffffffffffffffffffffffffffffffffff1614806115d85750600260009054906101000a900473ffffffffffffffffffffffffffffffffffffffff1673ffffffffffffffffffffffffffffffffffffffff168173ffffffffffffffffffffffffffffffffffffffff16145b15156115e357600080fd5b600360009054906101000a900473ffffffffffffffffffffffffffffffffffffffff1673ffffffffffffffffffffffffffffffffffffffff168273ffffffffffffffffffffffffffffffffffffffff16148061168c5750600360009054906101000a900473ffffffffffffffffffffffffffffffffffffffff1673ffffffffffffffffffffffffffffffffffffffff168173ffffffffffffffffffffffffffffffffffffffff16145b151561169757600080fd5b81600460006101000a81548173ffffffffffffffffffffffffffffffffffffffff021916908373ffffffffffffffffffffffffffffffffffffffff16021790555080600560006101000a81548173ffffffffffffffffffffffffffffffffffffffff021916908373ffffffffffffffffffffffffffffffffffffffff1602179055505050565b600660009054906101000a900473ffffffffffffffffffffffffffffffffffffffff1681565b600a60009054906101000a900460ff1681565b600260009054906101000a900473ffffffffffffffffffffffffffffffffffffffff1681565b600460009054906101000a900473ffffffffffffffffffffffffffffffffffffffff1681565b600b6020528060005260406000206000915090508060000160009054906101000a900473ffffffffffffffffffffffffffffffffffffffff16908060010154908060020154905083565b600560009054906101000a900473ffffffffffffffffffffffffffffffffffffffff1681565b600160009054906101000a900473ffffffffffffffffffffffffffffffffffffffff1681565b6000818381151561184557fe5b04905092915050565b6000818301905082811015151561186157fe5b80905092915050565b6000600381111561187757fe5b600a60009054906101000a900460ff16600381111561189257fe5b14151561189e57600080fd5b80600b60003373ffffffffffffffffffffffffffffffffffffffff1673ffffffffffffffffffffffffffffffffffffffff16815260200190815260200160002060000160006101000a81548173ffffffffffffffffffffffffffffffffffffffff021916908373ffffffffffffffffffffffffffffffffffffffff1602179055506000600b60003373ffffffffffffffffffffffffffffffffffffffff1673ffffffffffffffffffffffffffffffffffffffff168152602001908152602001600020600101819055506000600b60003373ffffffffffffffffffffffffffffffffffffffff1673ffffffffffffffffffffffffffffffffffffffff16815260200190815260200160002060020181905550505600a165627a7a72305820c14fbeb05eb6a10bc8ac1d31695e8b8f9f22072b3bb8787394e23b5f099ade940029",
  "source": "pragma solidity ^0.4.24;\n\nimport '../node_modules/openzeppelin-solidity/contracts/math/SafeMath.sol';\nimport './dWart.sol';\nimport './dWaria.sol';\n\n/*\n* @dev a dWaria dMatch\n* It is a match between 2 registered players\n* Any registered player can create a match\n* a match is initialized by sending a bet in dWart tokens\n*/\ncontract dMatch {\n\n    using SafeMath for uint256;\n\n    modifier onlyDWaria() {\n        require(msg.sender == address(parent));\n        _;\n    }\n    \n    modifier pendingOponent() {\n        require(state == State.pendingOponent);\n        _;\n    }\n    \n    modifier pendingWinner() {\n        require(state == State.pendingWinner);\n        _;\n    }\n\n    dWaria public parent;\n    dWart public token;\n\n    address public player1;\n    address public player2;\n\n    address public winner;\n    address public loser;\n\n    dStage public stage;\n\n    uint256 public roundCount = 2;\n    uint256 public round = 0;\n    mapping(uint256 => Round) public rounds; \n\n    struct Player {\n        address warrior;\n        uint256 damage;\n        uint256 points;\n    }\n\n    struct Round {\n        address winner;\n        address loser;\n    }\n\n    enum State {\n        pendingOponent,\n        pendingWinner,\n        won,\n        draw\n    }\n    \n    State public state;\n\n    mapping(address => Player) public players;\n\n    uint256 public bet = 0;\n\n    constructor(\n    dWaria _parent, \n    dWart _token,\n    dWarrior _warrior,\n    dStage _stage,\n    uint256 _bet) public {\n        parent = _parent;\n        token = _token;\n        stage = _stage;\n        state = State.pendingOponent;\n        bet = _bet;\n        _enterPlayer1(_warrior);\n    }\n\n    function() external {}\n\n    function _init(dWarrior _warrior) pendingOponent internal {\n        players[msg.sender].warrior = _warrior;\n        players[msg.sender].damage = 0;\n        players[msg.sender].points = 0;\n    }\n\n    function _enterPlayer1(dWarrior _warrior) pendingOponent internal {\n        require(player1 != msg.sender);\n        player1 = msg.sender;\n        token.transferFrom(msg.sender, address(this), bet);\n        _init(_warrior);\n    }\n    \n    function enterPlayer2(dWarrior _warrior) pendingOponent public {\n        require(player2 == address(0));\n        require(token.balanceOf(msg.sender) >= bet);\n        player2 = msg.sender;\n        bet = bet.add(bet);\n        token.transferFrom(msg.sender, address(this), bet);\n        _init(_warrior);\n        state = State.pendingWinner;\n    }\n\n    /*\n    * @dev Starts the fight\n    * This method must be called only by the official dWaria contract reference\n    * Both players must be ready to fight\n    * Ready means their connection is stable and the websockets are plugged in and listening\n    */\n    function fight() onlyDWaria pendingWinner public {\n        round = round.add(1);\n    }\n\n    function endRound(\n    uint256 player1Damage,\n    uint256 player1Points,\n    uint256 player2Damage,\n    uint256 player2Points\n    ) onlyDWaria pendingWinner public {\n        require(player1Damage >= 0 && player1Points >= 0);\n        require(player2Damage >= 0 && player2Points >= 0);\n\n        players[player1].damage = player1Damage;\n        players[player1].points = player1Points;\n        players[player2].damage = player2Damage;\n        players[player2].points = player2Points;\n\n        // if () \n        // rounds[round].winner = _winner;\n        // rounds[round].loser = _loser;\n    }\n\n    function setResult(address _winner, address _loser) onlyDWaria pendingWinner public {\n        require(_winner == player1 || _loser == player1);\n        require(_winner == player2 || _loser == player2);\n\n        winner = _winner;\n        loser = _loser;\n\n        // state = State.\n    }\n\n    /*\n    * @dev The winner may call this method to retrieve the bet funds\n    * If a dMatch is marked as \"draw\", then the bet is sent back equally\n    */\n    function withdraw() public {\n        require(state == State.pendingOponent || state == State.won || state == State.draw);\n        require(msg.sender == player1 || msg.sender == player2);\n\n        if (state == State.pendingOponent) {\n            require(msg.sender == player1);\n            token.transfer(player1, bet);\n        }\n\n        if (state == State.won) {\n            token.transfer(winner, bet);\n        }\n        \n        if (state == State.draw) {\n            token.transfer(player1, bet.div(2));\n            token.transfer(player2, bet.div(2));\n        }\n    }\n}",
  "sourcePath": "/Users/GustavoIbarra/Projects/Solidity/dwaria/contracts/dMatch.sol",
  "compiler": {
    "name": "solc",
    "version": "0.4.24+commit.e67f0147.Emscripten.clang"
  },
  "schemaVersion": "2.0.1",
  "updatedAt": "2018-08-19T16:21:05.866Z"
}