{
  "contractName": "dStage",
  "abi": [
    {
      "constant": true,
      "inputs": [],
      "name": "creator",
      "outputs": [
        {
          "name": "",
          "type": "address"
        }
      ],
      "payable": false,
      "stateMutability": "view",
      "type": "function"
    },
    {
      "constant": true,
      "inputs": [],
      "name": "name",
      "outputs": [
        {
          "name": "",
          "type": "string"
        }
      ],
      "payable": false,
      "stateMutability": "view",
      "type": "function"
    },
    {
      "constant": true,
      "inputs": [],
      "name": "fights",
      "outputs": [
        {
          "name": "",
          "type": "uint256"
        }
      ],
      "payable": false,
      "stateMutability": "view",
      "type": "function"
    },
    {
      "constant": true,
      "inputs": [],
      "name": "shortStory",
      "outputs": [
        {
          "name": "",
          "type": "string"
        }
      ],
      "payable": false,
      "stateMutability": "view",
      "type": "function"
    },
    {
      "constant": true,
      "inputs": [],
      "name": "amountRaised",
      "outputs": [
        {
          "name": "",
          "type": "uint256"
        }
      ],
      "payable": false,
      "stateMutability": "view",
      "type": "function"
    },
    {
      "constant": true,
      "inputs": [],
      "name": "fightsThreshold",
      "outputs": [
        {
          "name": "",
          "type": "uint256"
        }
      ],
      "payable": false,
      "stateMutability": "view",
      "type": "function"
    },
    {
      "constant": true,
      "inputs": [],
      "name": "price",
      "outputs": [
        {
          "name": "",
          "type": "uint256"
        }
      ],
      "payable": false,
      "stateMutability": "view",
      "type": "function"
    },
    {
      "constant": true,
      "inputs": [],
      "name": "token",
      "outputs": [
        {
          "name": "",
          "type": "address"
        }
      ],
      "payable": false,
      "stateMutability": "view",
      "type": "function"
    },
    {
      "inputs": [
        {
          "name": "_token",
          "type": "address"
        },
        {
          "name": "_name",
          "type": "string"
        },
        {
          "name": "_shortStory",
          "type": "string"
        }
      ],
      "payable": false,
      "stateMutability": "nonpayable",
      "type": "constructor"
    },
    {
      "payable": false,
      "stateMutability": "nonpayable",
      "type": "fallback"
    },
    {
      "constant": false,
      "inputs": [],
      "name": "select",
      "outputs": [],
      "payable": false,
      "stateMutability": "nonpayable",
      "type": "function"
    }
  ],
  "bytecode": "0x6080604052600060045560016005556000600655600f60075534801561002457600080fd5b506040516109bd3803806109bd83398101806040528101908080519060200190929190805182019291906020018051820192919050505033600160006101000a81548173ffffffffffffffffffffffffffffffffffffffff021916908373ffffffffffffffffffffffffffffffffffffffff16021790555081600290805190602001906100b2929190610112565b5080600390805190602001906100c9929190610112565b50826000806101000a81548173ffffffffffffffffffffffffffffffffffffffff021916908373ffffffffffffffffffffffffffffffffffffffff1602179055505050506101b7565b828054600181600116156101000203166002900490600052602060002090601f016020900481019282601f1061015357805160ff1916838001178555610181565b82800160010185558215610181579182015b82811115610180578251825591602001919060010190610165565b5b50905061018e9190610192565b5090565b6101b491905b808211156101b0576000816000905550600101610198565b5090565b90565b6107f7806101c66000396000f300608060405260043610610099576000357c0100000000000000000000000000000000000000000000000000000000900463ffffffff16806302d05d3f146100b057806306fdde03146101075780635398a96b146101975780636cd8f772146101ae57806370cc588d146101d95780637b3e5e7b146102695780638841785a14610294578063a035b1fe146102bf578063fc0c546a146102ea575b3480156100a557600080fd5b506100ae610341565b005b3480156100bc57600080fd5b506100c5610610565b604051808273ffffffffffffffffffffffffffffffffffffffff1673ffffffffffffffffffffffffffffffffffffffff16815260200191505060405180910390f35b34801561011357600080fd5b5061011c610636565b6040518080602001828103825283818151815260200191508051906020019080838360005b8381101561015c578082015181840152602081019050610141565b50505050905090810190601f1680156101895780820380516001836020036101000a031916815260200191505b509250505060405180910390f35b3480156101a357600080fd5b506101ac610341565b005b3480156101ba57600080fd5b506101c36106d4565b6040518082815260200191505060405180910390f35b3480156101e557600080fd5b506101ee6106da565b6040518080602001828103825283818151815260200191508051906020019080838360005b8381101561022e578082015181840152602081019050610213565b50505050905090810190601f16801561025b5780820380516001836020036101000a031916815260200191505b509250505060405180910390f35b34801561027557600080fd5b5061027e610778565b6040518082815260200191505060405180910390f35b3480156102a057600080fd5b506102a961077e565b6040518082815260200191505060405180910390f35b3480156102cb57600080fd5b506102d4610784565b6040518082815260200191505060405180910390f35b3480156102f657600080fd5b506102ff61078a565b604051808273ffffffffffffffffffffffffffffffffffffffff1673ffffffffffffffffffffffffffffffffffffffff16815260200191505060405180910390f35b6005546000809054906101000a900473ffffffffffffffffffffffffffffffffffffffff1673ffffffffffffffffffffffffffffffffffffffff166370a08231336040518263ffffffff167c0100000000000000000000000000000000000000000000000000000000028152600401808273ffffffffffffffffffffffffffffffffffffffff1673ffffffffffffffffffffffffffffffffffffffff168152602001915050602060405180830381600087803b15801561040057600080fd5b505af1158015610414573d6000803e3d6000fd5b505050506040513d602081101561042a57600080fd5b81019080805190602001909291905050501015151561044857600080fd5b6000809054906101000a900473ffffffffffffffffffffffffffffffffffffffff1673ffffffffffffffffffffffffffffffffffffffff166323b872dd33600160009054906101000a900473ffffffffffffffffffffffffffffffffffffffff166005546040518463ffffffff167c0100000000000000000000000000000000000000000000000000000000028152600401808473ffffffffffffffffffffffffffffffffffffffff1673ffffffffffffffffffffffffffffffffffffffff1681526020018373ffffffffffffffffffffffffffffffffffffffff1673ffffffffffffffffffffffffffffffffffffffff1681526020018281526020019350505050602060405180830381600087803b15801561056457600080fd5b505af1158015610578573d6000803e3d6000fd5b505050506040513d602081101561058e57600080fd5b8101908080519060200190929190505050506105b76005546004546107af90919063ffffffff16565b6004819055506105d360016006546107af90919063ffffffff16565b60068190555060006007546006548115156105ea57fe5b06141561060e5761060760016005546107af90919063ffffffff16565b6005819055505b565b600160009054906101000a900473ffffffffffffffffffffffffffffffffffffffff1681565b60028054600181600116156101000203166002900480601f0160208091040260200160405190810160405280929190818152602001828054600181600116156101000203166002900480156106cc5780601f106106a1576101008083540402835291602001916106cc565b820191906000526020600020905b8154815290600101906020018083116106af57829003601f168201915b505050505081565b60065481565b60038054600181600116156101000203166002900480601f0160208091040260200160405190810160405280929190818152602001828054600181600116156101000203166002900480156107705780601f1061074557610100808354040283529160200191610770565b820191906000526020600020905b81548152906001019060200180831161075357829003601f168201915b505050505081565b60045481565b60075481565b60055481565b6000809054906101000a900473ffffffffffffffffffffffffffffffffffffffff1681565b600081830190508281101515156107c257fe5b809050929150505600a165627a7a723058205743dc80a9fb74159d136ffa62cae4c3725d8fa3322dfb98eebb18583b5465dd0029",
  "source": "pragma solidity ^0.4.24;\n\nimport '../node_modules/openzeppelin-solidity/contracts/math/SafeMath.sol';\nimport './dWart.sol';\n\ncontract dStage {\n\n    using SafeMath for uint256;\n\n    dWart public token;\n\n    address public creator;\n    string public name;\n    string public shortStory;\n\n    uint256 public amountRaised = 0;\n    uint256 public price = 1;\n    uint256 public fights = 0;\n    uint256 public fightsThreshold = 15;\n\n    constructor(\n    dWart _token,\n    string _name, \n    string _shortStory\n    ) public {\n        creator = msg.sender;\n        name = _name;\n        shortStory = _shortStory;\n        token = _token;\n    }\n\n    function() external {\n        select();\n    }\n\n    /*\n    * @dev a Player selects this dWarrior for a Match\n    */\n    function select() public {\n        require(token.balanceOf(msg.sender) >= price);\n        token.transferFrom(msg.sender, creator, price);\n        amountRaised = amountRaised.add(price);\n        fights = fights.add(1);\n        if (fights % fightsThreshold == 0) {\n            price = price.add(1);\n        }\n    }\n\n    // left\n    // center\n    // right\n\n    // roof\n    // floor\n    \n    // higherground\n    // underground\n\n}",
  "sourcePath": "/Users/GustavoIbarra/Projects/Solidity/dwaria/contracts/dStage.sol",
  "compiler": {
    "name": "solc",
    "version": "0.4.24+commit.e67f0147.Emscripten.clang"
  },
  "schemaVersion": "2.0.1",
  "updatedAt": "2018-08-19T16:21:05.880Z"
}